{
  "_format": "hh-sol-artifact-1",
  "contractName": "MediaVerseToken",
  "sourceName": "contracts/MediaVerseToken.sol",
  "abi": [
    {
      "inputs": [],
      "stateMutability": "nonpayable",
      "type": "constructor"
    },
    {
      "inputs": [],
      "name": "ECDSAInvalidSignature",
      "type": "error"
    },
    {
      "inputs": [
        {
          "internalType": "uint256",
          "name": "length",
          "type": "uint256"
        }
      ],
      "name": "ECDSAInvalidSignatureLength",
      "type": "error"
    },
    {
      "inputs": [
        {
          "internalType": "bytes32",
          "name": "s",
          "type": "bytes32"
        }
      ],
      "name": "ECDSAInvalidSignatureS",
      "type": "error"
    },
    {
      "inputs": [
        {
          "internalType": "address",
          "name": "spender",
          "type": "address"
        },
        {
          "internalType": "uint256",
          "name": "allowance",
          "type": "uint256"
        },
        {
          "internalType": "uint256",
          "name": "needed",
          "type": "uint256"
        }
      ],
      "name": "ERC20InsufficientAllowance",
      "type": "error"
    },
    {
      "inputs": [
        {
          "internalType": "address",
          "name": "sender",
          "type": "address"
        },
        {
          "internalType": "uint256",
          "name": "balance",
          "type": "uint256"
        },
        {
          "internalType": "uint256",
          "name": "needed",
          "type": "uint256"
        }
      ],
      "name": "ERC20InsufficientBalance",
      "type": "error"
    },
    {
      "inputs": [
        {
          "internalType": "address",
          "name": "approver",
          "type": "address"
        }
      ],
      "name": "ERC20InvalidApprover",
      "type": "error"
    },
    {
      "inputs": [
        {
          "internalType": "address",
          "name": "receiver",
          "type": "address"
        }
      ],
      "name": "ERC20InvalidReceiver",
      "type": "error"
    },
    {
      "inputs": [
        {
          "internalType": "address",
          "name": "sender",
          "type": "address"
        }
      ],
      "name": "ERC20InvalidSender",
      "type": "error"
    },
    {
      "inputs": [
        {
          "internalType": "address",
          "name": "spender",
          "type": "address"
        }
      ],
      "name": "ERC20InvalidSpender",
      "type": "error"
    },
    {
      "inputs": [
        {
          "internalType": "uint256",
          "name": "deadline",
          "type": "uint256"
        }
      ],
      "name": "ERC2612ExpiredSignature",
      "type": "error"
    },
    {
      "inputs": [
        {
          "internalType": "address",
          "name": "signer",
          "type": "address"
        },
        {
          "internalType": "address",
          "name": "owner",
          "type": "address"
        }
      ],
      "name": "ERC2612InvalidSigner",
      "type": "error"
    },
    {
      "inputs": [
        {
          "internalType": "address",
          "name": "account",
          "type": "address"
        },
        {
          "internalType": "uint256",
          "name": "currentNonce",
          "type": "uint256"
        }
      ],
      "name": "InvalidAccountNonce",
      "type": "error"
    },
    {
      "inputs": [],
      "name": "InvalidShortString",
      "type": "error"
    },
    {
      "inputs": [
        {
          "internalType": "address",
          "name": "owner",
          "type": "address"
        }
      ],
      "name": "OwnableInvalidOwner",
      "type": "error"
    },
    {
      "inputs": [
        {
          "internalType": "address",
          "name": "account",
          "type": "address"
        }
      ],
      "name": "OwnableUnauthorizedAccount",
      "type": "error"
    },
    {
      "inputs": [
        {
          "internalType": "string",
          "name": "str",
          "type": "string"
        }
      ],
      "name": "StringTooLong",
      "type": "error"
    },
    {
      "anonymous": false,
      "inputs": [
        {
          "indexed": true,
          "internalType": "address",
          "name": "owner",
          "type": "address"
        },
        {
          "indexed": true,
          "internalType": "address",
          "name": "spender",
          "type": "address"
        },
        {
          "indexed": false,
          "internalType": "uint256",
          "name": "value",
          "type": "uint256"
        }
      ],
      "name": "Approval",
      "type": "event"
    },
    {
      "anonymous": false,
      "inputs": [],
      "name": "EIP712DomainChanged",
      "type": "event"
    },
    {
      "anonymous": false,
      "inputs": [
        {
          "indexed": true,
          "internalType": "address",
          "name": "previousOwner",
          "type": "address"
        },
        {
          "indexed": true,
          "internalType": "address",
          "name": "newOwner",
          "type": "address"
        }
      ],
      "name": "OwnershipTransferred",
      "type": "event"
    },
    {
      "anonymous": false,
      "inputs": [
        {
          "indexed": true,
          "internalType": "address",
          "name": "from",
          "type": "address"
        },
        {
          "indexed": true,
          "internalType": "address",
          "name": "to",
          "type": "address"
        },
        {
          "indexed": false,
          "internalType": "uint256",
          "name": "value",
          "type": "uint256"
        }
      ],
      "name": "Transfer",
      "type": "event"
    },
    {
      "anonymous": false,
      "inputs": [
        {
          "indexed": true,
          "internalType": "address",
          "name": "user",
          "type": "address"
        },
        {
          "indexed": false,
          "internalType": "uint256",
          "name": "amount",
          "type": "uint256"
        },
        {
          "indexed": false,
          "internalType": "string",
          "name": "taskId",
          "type": "string"
        }
      ],
      "name": "UserRewarded",
      "type": "event"
    },
    {
      "inputs": [],
      "name": "DOMAIN_SEPARATOR",
      "outputs": [
        {
          "internalType": "bytes32",
          "name": "",
          "type": "bytes32"
        }
      ],
      "stateMutability": "view",
      "type": "function"
    },
    {
      "inputs": [
        {
          "internalType": "address",
          "name": "owner",
          "type": "address"
        },
        {
          "internalType": "address",
          "name": "spender",
          "type": "address"
        }
      ],
      "name": "allowance",
      "outputs": [
        {
          "internalType": "uint256",
          "name": "",
          "type": "uint256"
        }
      ],
      "stateMutability": "view",
      "type": "function"
    },
    {
      "inputs": [
        {
          "internalType": "address",
          "name": "spender",
          "type": "address"
        },
        {
          "internalType": "uint256",
          "name": "value",
          "type": "uint256"
        }
      ],
      "name": "approve",
      "outputs": [
        {
          "internalType": "bool",
          "name": "",
          "type": "bool"
        }
      ],
      "stateMutability": "nonpayable",
      "type": "function"
    },
    {
      "inputs": [
        {
          "internalType": "address",
          "name": "account",
          "type": "address"
        }
      ],
      "name": "balanceOf",
      "outputs": [
        {
          "internalType": "uint256",
          "name": "",
          "type": "uint256"
        }
      ],
      "stateMutability": "view",
      "type": "function"
    },
    {
      "inputs": [
        {
          "internalType": "uint256",
          "name": "value",
          "type": "uint256"
        }
      ],
      "name": "burn",
      "outputs": [],
      "stateMutability": "nonpayable",
      "type": "function"
    },
    {
      "inputs": [
        {
          "internalType": "address",
          "name": "account",
          "type": "address"
        },
        {
          "internalType": "uint256",
          "name": "value",
          "type": "uint256"
        }
      ],
      "name": "burnFrom",
      "outputs": [],
      "stateMutability": "nonpayable",
      "type": "function"
    },
    {
      "inputs": [],
      "name": "decimals",
      "outputs": [
        {
          "internalType": "uint8",
          "name": "",
          "type": "uint8"
        }
      ],
      "stateMutability": "view",
      "type": "function"
    },
    {
      "inputs": [],
      "name": "eip712Domain",
      "outputs": [
        {
          "internalType": "bytes1",
          "name": "fields",
          "type": "bytes1"
        },
        {
          "internalType": "string",
          "name": "name",
          "type": "string"
        },
        {
          "internalType": "string",
          "name": "version",
          "type": "string"
        },
        {
          "internalType": "uint256",
          "name": "chainId",
          "type": "uint256"
        },
        {
          "internalType": "address",
          "name": "verifyingContract",
          "type": "address"
        },
        {
          "internalType": "bytes32",
          "name": "salt",
          "type": "bytes32"
        },
        {
          "internalType": "uint256[]",
          "name": "extensions",
          "type": "uint256[]"
        }
      ],
      "stateMutability": "view",
      "type": "function"
    },
    {
      "inputs": [],
      "name": "name",
      "outputs": [
        {
          "internalType": "string",
          "name": "",
          "type": "string"
        }
      ],
      "stateMutability": "view",
      "type": "function"
    },
    {
      "inputs": [
        {
          "internalType": "address",
          "name": "owner",
          "type": "address"
        }
      ],
      "name": "nonces",
      "outputs": [
        {
          "internalType": "uint256",
          "name": "",
          "type": "uint256"
        }
      ],
      "stateMutability": "view",
      "type": "function"
    },
    {
      "inputs": [],
      "name": "owner",
      "outputs": [
        {
          "internalType": "address",
          "name": "",
          "type": "address"
        }
      ],
      "stateMutability": "view",
      "type": "function"
    },
    {
      "inputs": [
        {
          "internalType": "address",
          "name": "owner",
          "type": "address"
        },
        {
          "internalType": "address",
          "name": "spender",
          "type": "address"
        },
        {
          "internalType": "uint256",
          "name": "value",
          "type": "uint256"
        },
        {
          "internalType": "uint256",
          "name": "deadline",
          "type": "uint256"
        },
        {
          "internalType": "uint8",
          "name": "v",
          "type": "uint8"
        },
        {
          "internalType": "bytes32",
          "name": "r",
          "type": "bytes32"
        },
        {
          "internalType": "bytes32",
          "name": "s",
          "type": "bytes32"
        }
      ],
      "name": "permit",
      "outputs": [],
      "stateMutability": "nonpayable",
      "type": "function"
    },
    {
      "inputs": [],
      "name": "renounceOwnership",
      "outputs": [],
      "stateMutability": "nonpayable",
      "type": "function"
    },
    {
      "inputs": [
        {
          "internalType": "address",
          "name": "user",
          "type": "address"
        },
        {
          "internalType": "uint256",
          "name": "amount",
          "type": "uint256"
        }
      ],
      "name": "rewardUser",
      "outputs": [],
      "stateMutability": "nonpayable",
      "type": "function"
    },
    {
      "inputs": [],
      "name": "symbol",
      "outputs": [
        {
          "internalType": "string",
          "name": "",
          "type": "string"
        }
      ],
      "stateMutability": "view",
      "type": "function"
    },
    {
      "inputs": [],
      "name": "totalSupply",
      "outputs": [
        {
          "internalType": "uint256",
          "name": "",
          "type": "uint256"
        }
      ],
      "stateMutability": "view",
      "type": "function"
    },
    {
      "inputs": [
        {
          "internalType": "address",
          "name": "to",
          "type": "address"
        },
        {
          "internalType": "uint256",
          "name": "value",
          "type": "uint256"
        }
      ],
      "name": "transfer",
      "outputs": [
        {
          "internalType": "bool",
          "name": "",
          "type": "bool"
        }
      ],
      "stateMutability": "nonpayable",
      "type": "function"
    },
    {
      "inputs": [
        {
          "internalType": "address",
          "name": "from",
          "type": "address"
        },
        {
          "internalType": "address",
          "name": "to",
          "type": "address"
        },
        {
          "internalType": "uint256",
          "name": "value",
          "type": "uint256"
        }
      ],
      "name": "transferFrom",
      "outputs": [
        {
          "internalType": "bool",
          "name": "",
          "type": "bool"
        }
      ],
      "stateMutability": "nonpayable",
      "type": "function"
    },
    {
      "inputs": [
        {
          "internalType": "address",
          "name": "newOwner",
          "type": "address"
        }
      ],
      "name": "transferOwnership",
      "outputs": [],
      "stateMutability": "nonpayable",
      "type": "function"
    }
  ],
  "bytecode": "0x61016060405234801562000011575f80fd5b50336040518060400160405280601081526020016f26b2b234b0ab32b939b2902a37b5b2b760811b81525080604051806040016040528060018152602001603160f81b8152506040518060400160405280601081526020016f26b2b234b0ab32b939b2902a37b5b2b760811b8152506040518060400160405280600381526020016213559560ea1b8152508160039081620000ad9190620004b3565b506004620000bc8282620004b3565b50620000ce91508390506005620001df565b61012052620000df816006620001df565b61014052815160208084019190912060e052815190820120610100524660a0526200016c60e05161010051604080517f8b73c3c69bb8fe3d512ecc4cf759cc79239f7b179b0ffacaa9a75d522b39400f60208201529081019290925260608201524660808201523060a08201525f9060c00160405160208183030381529060405280519060200120905090565b60805250503060c052506001600160a01b038116620001a557604051631e4fbdf760e01b81525f60048201526024015b60405180910390fd5b620001b08162000217565b50620001d933620001c46012600a6200068c565b620001d390620f4240620006a3565b62000268565b62000745565b5f602083511015620001fe57620001f683620002a4565b905062000211565b816200020b8482620004b3565b5060ff90505b92915050565b600880546001600160a01b038381166001600160a01b0319831681179093556040519116919082907f8be0079c531659141344cd1fd0a4f28419497f9722a3daafe3b4186f6b6457e0905f90a35050565b6001600160a01b038216620002935760405163ec442f0560e01b81525f60048201526024016200019c565b620002a05f8383620002e6565b5050565b5f80829050601f81511115620002d1578260405163305a27a960e01b81526004016200019c9190620006bd565b8051620002de826200070b565b179392505050565b6001600160a01b03831662000314578060025f8282546200030891906200072f565b90915550620003869050565b6001600160a01b0383165f9081526020819052604090205481811015620003685760405163391434e360e21b81526001600160a01b038516600482015260248101829052604481018390526064016200019c565b6001600160a01b0384165f9081526020819052604090209082900390555b6001600160a01b038216620003a457600280548290039055620003c2565b6001600160a01b0382165f9081526020819052604090208054820190555b816001600160a01b0316836001600160a01b03167fddf252ad1be2c89b69c2b068fc378daa952ba7f163c4a11628f55a4df523b3ef836040516200040891815260200190565b60405180910390a3505050565b634e487b7160e01b5f52604160045260245ffd5b600181811c908216806200043e57607f821691505b6020821081036200045d57634e487b7160e01b5f52602260045260245ffd5b50919050565b601f821115620004ae57805f5260205f20601f840160051c810160208510156200048a5750805b601f840160051c820191505b81811015620004ab575f815560010162000496565b50505b505050565b81516001600160401b03811115620004cf57620004cf62000415565b620004e781620004e0845462000429565b8462000463565b602080601f8311600181146200051d575f8415620005055750858301515b5f19600386901b1c1916600185901b17855562000577565b5f85815260208120601f198616915b828110156200054d578886015182559484019460019091019084016200052c565b50858210156200056b57878501515f19600388901b60f8161c191681555b505060018460011b0185555b505050505050565b634e487b7160e01b5f52601160045260245ffd5b600181815b80851115620005d357815f1904821115620005b757620005b76200057f565b80851615620005c557918102915b93841c939080029062000598565b509250929050565b5f82620005eb5750600162000211565b81620005f957505f62000211565b81600181146200061257600281146200061d576200063d565b600191505062000211565b60ff8411156200063157620006316200057f565b50506001821b62000211565b5060208310610133831016604e8410600b841016171562000662575081810a62000211565b6200066e838362000593565b805f19048211156200068457620006846200057f565b029392505050565b5f6200069c60ff841683620005db565b9392505050565b80820281158282048414176200021157620002116200057f565b5f602080835283518060208501525f5b81811015620006eb57858101830151858201604001528201620006cd565b505f604082860101526040601f19601f8301168501019250505092915050565b805160208083015191908110156200045d575f1960209190910360031b1b16919050565b808201808211156200021157620002116200057f565b60805160a05160c05160e0516101005161012051610140516111df620007975f395f6109ca01525f61099d01525f61089401525f61086c01525f6107c701525f6107f101525f61081b01526111df5ff3fe608060405234801561000f575f80fd5b506004361061011c575f3560e01c806379cc6790116100a9578063a9059cbb1161006e578063a9059cbb14610246578063d505accf14610259578063dd62ed3e1461026c578063e4e103dc146102a4578063f2fde38b146102b7575f80fd5b806379cc6790146101e25780637ecebe00146101f557806384b0196e146102085780638da5cb5b1461022357806395d89b411461023e575f80fd5b8063313ce567116100ef578063313ce567146101865780633644e5151461019557806342966c681461019d57806370a08231146101b2578063715018a6146101da575f80fd5b806306fdde0314610120578063095ea7b31461013e57806318160ddd1461016157806323b872dd14610173575b5f80fd5b6101286102ca565b6040516101359190610f44565b60405180910390f35b61015161014c366004610f78565b61035a565b6040519015158152602001610135565b6002545b604051908152602001610135565b610151610181366004610fa0565b610373565b60405160128152602001610135565b610165610396565b6101b06101ab366004610fd9565b6103a4565b005b6101656101c0366004610ff0565b6001600160a01b03165f9081526020819052604090205490565b6101b06103b1565b6101b06101f0366004610f78565b6103c4565b610165610203366004610ff0565b6103dd565b6102106103fa565b6040516101359796959493929190611009565b6008546040516001600160a01b039091168152602001610135565b61012861043c565b610151610254366004610f78565b61044b565b6101b06102673660046110a0565b610458565b61016561027a36600461110d565b6001600160a01b039182165f90815260016020908152604080832093909416825291909152205490565b6101b06102b2366004610f78565b610593565b6101b06102c5366004610ff0565b610696565b6060600380546102d99061113e565b80601f01602080910402602001604051908101604052809291908181526020018280546103059061113e565b80156103505780601f1061032757610100808354040283529160200191610350565b820191905f5260205f20905b81548152906001019060200180831161033357829003601f168201915b5050505050905090565b5f336103678185856106d0565b60019150505b92915050565b5f336103808582856106e2565b61038b85858561075e565b506001949350505050565b5f61039f6107bb565b905090565b6103ae33826108e4565b50565b6103b9610918565b6103c25f610945565b565b6103cf8233836106e2565b6103d982826108e4565b5050565b6001600160a01b0381165f9081526007602052604081205461036d565b5f6060805f805f606061040b610996565b6104136109c3565b604080515f80825260208201909252600f60f81b9b939a50919850469750309650945092509050565b6060600480546102d99061113e565b5f3361036781858561075e565b834211156104815760405163313c898160e11b8152600481018590526024015b60405180910390fd5b5f7f6e71edae12b1b97f4d1f60370fef10105fa2faae0126114a169c64845d6126c98888886104cc8c6001600160a01b03165f90815260076020526040902080546001810190915590565b6040805160208101969096526001600160a01b0394851690860152929091166060840152608083015260a082015260c0810186905260e0016040516020818303038152906040528051906020012090505f610526826109f0565b90505f61053582878787610a1c565b9050896001600160a01b0316816001600160a01b03161461057c576040516325c0072360e11b81526001600160a01b0380831660048301528b166024820152604401610478565b6105878a8a8a6106d0565b50505050505050505050565b61059b610918565b6001600160a01b0382166105e85760405162461bcd60e51b8152602060048201526014602482015273496e76616c69642075736572206164647265737360601b6044820152606401610478565b5f81116106375760405162461bcd60e51b815260206004820152601d60248201527f416d6f756e74206d7573742062652067726561746572207468616e20300000006044820152606401610478565b6106418282610a48565b816001600160a01b03167f90bd9009d09ff2f08e6d82c99b03588ca7e242e4530ffc676252bea172a77fa58260405161068a9181526040602082018190525f9082015260600190565b60405180910390a25050565b61069e610918565b6001600160a01b0381166106c757604051631e4fbdf760e01b81525f6004820152602401610478565b6103ae81610945565b6106dd8383836001610a7c565b505050565b6001600160a01b038381165f908152600160209081526040808320938616835292905220545f19811015610758578181101561074a57604051637dc7a0d960e11b81526001600160a01b03841660048201526024810182905260448101839052606401610478565b61075884848484035f610a7c565b50505050565b6001600160a01b03831661078757604051634b637e8f60e11b81525f6004820152602401610478565b6001600160a01b0382166107b05760405163ec442f0560e01b81525f6004820152602401610478565b6106dd838383610b4e565b5f306001600160a01b037f00000000000000000000000000000000000000000000000000000000000000001614801561081357507f000000000000000000000000000000000000000000000000000000000000000046145b1561083d57507f000000000000000000000000000000000000000000000000000000000000000090565b61039f604080517f8b73c3c69bb8fe3d512ecc4cf759cc79239f7b179b0ffacaa9a75d522b39400f60208201527f0000000000000000000000000000000000000000000000000000000000000000918101919091527f000000000000000000000000000000000000000000000000000000000000000060608201524660808201523060a08201525f9060c00160405160208183030381529060405280519060200120905090565b6001600160a01b03821661090d57604051634b637e8f60e11b81525f6004820152602401610478565b6103d9825f83610b4e565b6008546001600160a01b031633146103c25760405163118cdaa760e01b8152336004820152602401610478565b600880546001600160a01b038381166001600160a01b0319831681179093556040519116919082907f8be0079c531659141344cd1fd0a4f28419497f9722a3daafe3b4186f6b6457e0905f90a35050565b606061039f7f00000000000000000000000000000000000000000000000000000000000000006005610c74565b606061039f7f00000000000000000000000000000000000000000000000000000000000000006006610c74565b5f61036d6109fc6107bb565b8360405161190160f01b8152600281019290925260228201526042902090565b5f805f80610a2c88888888610d1d565b925092509250610a3c8282610de5565b50909695505050505050565b6001600160a01b038216610a715760405163ec442f0560e01b81525f6004820152602401610478565b6103d95f8383610b4e565b6001600160a01b038416610aa55760405163e602df0560e01b81525f6004820152602401610478565b6001600160a01b038316610ace57604051634a1406b160e11b81525f6004820152602401610478565b6001600160a01b038085165f908152600160209081526040808320938716835292905220829055801561075857826001600160a01b0316846001600160a01b03167f8c5be1e5ebec7d5bd14f71427d1e84f3dd0314c0f7b2291e5b200ac8c7c3b92584604051610b4091815260200190565b60405180910390a350505050565b6001600160a01b038316610b78578060025f828254610b6d9190611176565b90915550610be89050565b6001600160a01b0383165f9081526020819052604090205481811015610bca5760405163391434e360e21b81526001600160a01b03851660048201526024810182905260448101839052606401610478565b6001600160a01b0384165f9081526020819052604090209082900390555b6001600160a01b038216610c0457600280548290039055610c22565b6001600160a01b0382165f9081526020819052604090208054820190555b816001600160a01b0316836001600160a01b03167fddf252ad1be2c89b69c2b068fc378daa952ba7f163c4a11628f55a4df523b3ef83604051610c6791815260200190565b60405180910390a3505050565b606060ff8314610c8e57610c8783610e9d565b905061036d565b818054610c9a9061113e565b80601f0160208091040260200160405190810160405280929190818152602001828054610cc69061113e565b8015610d115780601f10610ce857610100808354040283529160200191610d11565b820191905f5260205f20905b815481529060010190602001808311610cf457829003601f168201915b5050505050905061036d565b5f80807f7fffffffffffffffffffffffffffffff5d576e7357a4501ddfe92f46681b20a0841115610d5657505f91506003905082610ddb565b604080515f808252602082018084528a905260ff891692820192909252606081018790526080810186905260019060a0016020604051602081039080840390855afa158015610da7573d5f803e3d5ffd5b5050604051601f1901519150506001600160a01b038116610dd257505f925060019150829050610ddb565b92505f91508190505b9450945094915050565b5f826003811115610df857610df8611195565b03610e01575050565b6001826003811115610e1557610e15611195565b03610e335760405163f645eedf60e01b815260040160405180910390fd5b6002826003811115610e4757610e47611195565b03610e685760405163fce698f760e01b815260048101829052602401610478565b6003826003811115610e7c57610e7c611195565b036103d9576040516335e2f38360e21b815260048101829052602401610478565b60605f610ea983610eda565b6040805160208082528183019092529192505f91906020820181803683375050509182525060208101929092525090565b5f60ff8216601f81111561036d57604051632cd44ac360e21b815260040160405180910390fd5b5f81518084525f5b81811015610f2557602081850181015186830182015201610f09565b505f602082860101526020601f19601f83011685010191505092915050565b602081525f610f566020830184610f01565b9392505050565b80356001600160a01b0381168114610f73575f80fd5b919050565b5f8060408385031215610f89575f80fd5b610f9283610f5d565b946020939093013593505050565b5f805f60608486031215610fb2575f80fd5b610fbb84610f5d565b9250610fc960208501610f5d565b9150604084013590509250925092565b5f60208284031215610fe9575f80fd5b5035919050565b5f60208284031215611000575f80fd5b610f5682610f5d565b60ff60f81b881681525f602060e0602084015261102960e084018a610f01565b838103604085015261103b818a610f01565b606085018990526001600160a01b038816608086015260a0850187905284810360c0860152855180825260208088019350909101905f5b8181101561108e57835183529284019291840191600101611072565b50909c9b505050505050505050505050565b5f805f805f805f60e0888a0312156110b6575f80fd5b6110bf88610f5d565b96506110cd60208901610f5d565b95506040880135945060608801359350608088013560ff811681146110f0575f80fd5b9699959850939692959460a0840135945060c09093013592915050565b5f806040838503121561111e575f80fd5b61112783610f5d565b915061113560208401610f5d565b90509250929050565b600181811c9082168061115257607f821691505b60208210810361117057634e487b7160e01b5f52602260045260245ffd5b50919050565b8082018082111561036d57634e487b7160e01b5f52601160045260245ffd5b634e487b7160e01b5f52602160045260245ffdfea2646970667358221220b07b6041c93d32c563b28c71144aa337d188e8cae9f25966b7189036e03e784c64736f6c63430008180033",
  "linkReferences": {},
  "deployedLinkReferences": {}
}