{
  "_format": "hh-sol-artifact-1",
  "contractName": "ThemeMarketplace",
  "sourceName": "contracts/ThemeMarketplace.sol",
  "abi": [
    {
      "inputs": [
        {
          "internalType": "address",
          "name": "_tokenAddress",
          "type": "address"
        }
      ],
      "stateMutability": "nonpayable",
      "type": "constructor"
    },
    {
      "inputs": [
        {
          "internalType": "address",
          "name": "owner",
          "type": "address"
        }
      ],
      "name": "OwnableInvalidOwner",
      "type": "error"
    },
    {
      "inputs": [
        {
          "internalType": "address",
          "name": "account",
          "type": "address"
        }
      ],
      "name": "OwnableUnauthorizedAccount",
      "type": "error"
    },
    {
      "inputs": [],
      "name": "ReentrancyGuardReentrantCall",
      "type": "error"
    },
    {
      "anonymous": false,
      "inputs": [
        {
          "indexed": true,
          "internalType": "address",
          "name": "previousOwner",
          "type": "address"
        },
        {
          "indexed": true,
          "internalType": "address",
          "name": "newOwner",
          "type": "address"
        }
      ],
      "name": "OwnershipTransferred",
      "type": "event"
    },
    {
      "anonymous": false,
      "inputs": [
        {
          "indexed": false,
          "internalType": "string",
          "name": "themeId",
          "type": "string"
        },
        {
          "indexed": false,
          "internalType": "uint256",
          "name": "newPrice",
          "type": "uint256"
        }
      ],
      "name": "ThemePriceUpdated",
      "type": "event"
    },
    {
      "anonymous": false,
      "inputs": [
        {
          "indexed": true,
          "internalType": "address",
          "name": "user",
          "type": "address"
        },
        {
          "indexed": false,
          "internalType": "string",
          "name": "themeId",
          "type": "string"
        },
        {
          "indexed": false,
          "internalType": "uint256",
          "name": "price",
          "type": "uint256"
        }
      ],
      "name": "ThemePurchased",
      "type": "event"
    },
    {
      "inputs": [
        {
          "internalType": "address",
          "name": "user",
          "type": "address"
        },
        {
          "internalType": "string[]",
          "name": "themeIds",
          "type": "string[]"
        }
      ],
      "name": "getUserThemes",
      "outputs": [
        {
          "internalType": "bool[]",
          "name": "",
          "type": "bool[]"
        }
      ],
      "stateMutability": "view",
      "type": "function"
    },
    {
      "inputs": [
        {
          "internalType": "address",
          "name": "user",
          "type": "address"
        },
        {
          "internalType": "string",
          "name": "themeId",
          "type": "string"
        }
      ],
      "name": "hasTheme",
      "outputs": [
        {
          "internalType": "bool",
          "name": "",
          "type": "bool"
        }
      ],
      "stateMutability": "view",
      "type": "function"
    },
    {
      "inputs": [],
      "name": "owner",
      "outputs": [
        {
          "internalType": "address",
          "name": "",
          "type": "address"
        }
      ],
      "stateMutability": "view",
      "type": "function"
    },
    {
      "inputs": [
        {
          "internalType": "address",
          "name": "user",
          "type": "address"
        },
        {
          "internalType": "string",
          "name": "themeId",
          "type": "string"
        },
        {
          "internalType": "uint256",
          "name": "deadline",
          "type": "uint256"
        },
        {
          "internalType": "uint8",
          "name": "v",
          "type": "uint8"
        },
        {
          "internalType": "bytes32",
          "name": "r",
          "type": "bytes32"
        },
        {
          "internalType": "bytes32",
          "name": "s",
          "type": "bytes32"
        }
      ],
      "name": "purchaseThemeForWithPermit",
      "outputs": [],
      "stateMutability": "nonpayable",
      "type": "function"
    },
    {
      "inputs": [],
      "name": "renounceOwnership",
      "outputs": [],
      "stateMutability": "nonpayable",
      "type": "function"
    },
    {
      "inputs": [
        {
          "internalType": "string",
          "name": "",
          "type": "string"
        }
      ],
      "name": "themePrices",
      "outputs": [
        {
          "internalType": "uint256",
          "name": "",
          "type": "uint256"
        }
      ],
      "stateMutability": "view",
      "type": "function"
    },
    {
      "inputs": [],
      "name": "token",
      "outputs": [
        {
          "internalType": "contract IERC20",
          "name": "",
          "type": "address"
        }
      ],
      "stateMutability": "view",
      "type": "function"
    },
    {
      "inputs": [
        {
          "internalType": "address",
          "name": "newOwner",
          "type": "address"
        }
      ],
      "name": "transferOwnership",
      "outputs": [],
      "stateMutability": "nonpayable",
      "type": "function"
    },
    {
      "inputs": [
        {
          "internalType": "string",
          "name": "themeId",
          "type": "string"
        },
        {
          "internalType": "uint256",
          "name": "newPrice",
          "type": "uint256"
        }
      ],
      "name": "updateThemePrice",
      "outputs": [],
      "stateMutability": "nonpayable",
      "type": "function"
    },
    {
      "inputs": [
        {
          "internalType": "address",
          "name": "",
          "type": "address"
        },
        {
          "internalType": "string",
          "name": "",
          "type": "string"
        }
      ],
      "name": "userThemes",
      "outputs": [
        {
          "internalType": "bool",
          "name": "",
          "type": "bool"
        }
      ],
      "stateMutability": "view",
      "type": "function"
    }
  ],
  "bytecode": "0x608060405234801561000f575f80fd5b506040516110a63803806110a683398101604081905261002e9161040e565b338061005457604051631e4fbdf760e01b81525f60048201526024015b60405180910390fd5b61005d816103bf565b5060017f9b779b17422d0df92223018b32b4d1fa46e071723d6817e2486d003becc55f00556001600160a01b0381166100d85760405162461bcd60e51b815260206004820152601560248201527f496e76616c696420746f6b656e20616464726573730000000000000000000000604482015260640161004b565b600180546001600160a01b03929092166001600160a01b03199092169190911790556040805165696e6469676f60d01b81526002600680830182905283516026938190038401812068056bc75e2d63100000908190556433b932b2b760d91b8252600580830185905286516025938190038401812083905566195b595c985b1960ca1b8152600780820187905288516027928190038301812085905563626c756560e01b815260048082018990528a5160249281900383018120879055651d9a5bdb195d60d21b81528089018a90528b51908190038b01812087905563726f736560e01b81528082018a90528b519081900383018120879055633737b4b960e11b81528082018a90528b519081900383018120879055636c696d6560e01b81528082018a90528b519081900383018120879055621c995960ea1b815260038082018b90528c5160239281900383018120899055656f72616e676560d01b8152808b018c90528d51908190038d0181208990556430b6b132b960d91b81529687018b90528c519687900390980186208790556579656c6c6f7760d01b86528589018a90528b51958690038b0186208790556331bcb0b760e11b86528582018a90528b51958690038301862087905562736b7960e81b86529685018990528a5194859003909601842085905565707572706c6560d01b84529583018790528851928390039097018220839055666675636873696160c81b825295810185905286519081900390950185208190556370696e6b60e01b85528482018490528551948590038301852055686368726973746d617360b81b84526009808501849052855160299581900386018120680d8d726b7177a8000090819055683430b63637bbb2b2b760b91b82528183018690528751918290038701822055633732b7b760e11b81529182018490528551918290039092018120680ad78ebc5ac62000009081905568637962657270756e6b60b81b82529181019290925292519081900390910190205561043b565b5f80546001600160a01b038381166001600160a01b0319831681178455604051919092169283917f8be0079c531659141344cd1fd0a4f28419497f9722a3daafe3b4186f6b6457e09190a35050565b5f6020828403121561041e575f80fd5b81516001600160a01b0381168114610434575f80fd5b9392505050565b610c5e806104485f395ff3fe608060405234801561000f575f80fd5b506004361061009b575f3560e01c80638da5cb5b116100635780638da5cb5b14610146578063935e28e51461016a578063c4e2e0c61461017d578063f2fde38b146101b6578063fc0c546a146101c9575f80fd5b8063036a82051461009f5780632520e762146100b457806329f7d443146100c75780635e079c7a146100f0578063715018a61461013e575b5f80fd5b6100b26100ad36600461090f565b6101dc565b005b6100b26100c236600461098b565b610533565b6100da6100d53660046109cd565b6105ea565b6040516100e79190610a9c565b60405180910390f35b61012e6100fe366004610ae1565b600360209081525f9283526040909220815180830184018051928152908401929093019190912091525460ff1681565b60405190151581526020016100e7565b6100b26106c8565b5f546001600160a01b03165b6040516001600160a01b0390911681526020016100e7565b61012e610178366004610ae1565b6106db565b6101a861018b366004610b2c565b805160208183018101805160028252928201919093012091525481565b6040519081526020016100e7565b6100b26101c4366004610b66565b61071b565b600154610152906001600160a01b031681565b6101e4610758565b6101ec610784565b5f6002866040516101fd9190610ba8565b90815260200160405180910390205490505f81116102595760405162461bcd60e51b8152602060048201526014602482015273151a195b5948191bd95cc81b9bdd08195e1a5cdd60621b60448201526064015b60405180910390fd5b6001600160a01b0387165f9081526003602052604090819020905161027f908890610ba8565b9081526040519081900360200190205460ff16156102d55760405162461bcd60e51b8152602060048201526013602482015272151a195b5948185b1c9958591e481bdddb9959606a1b6044820152606401610250565b6001546040516370a0823160e01b81526001600160a01b038981166004830152839216906370a0823190602401602060405180830381865afa15801561031d573d5f803e3d5ffd5b505050506040513d601f19601f820116820180604052508101906103419190610bc3565b101561038f5760405162461bcd60e51b815260206004820152601a60248201527f496e73756666696369656e7420746f6b656e2062616c616e63650000000000006044820152606401610250565b60015460405163d505accf60e01b81526001600160a01b038981166004830152306024830152604482018490526064820188905260ff8716608483015260a4820186905260c482018590529091169063d505accf9060e4015f604051808303815f87803b1580156103fe575f80fd5b505af1158015610410573d5f803e3d5ffd5b505060015460405163079cc67960e41b81526001600160a01b038b811660048301526024820186905290911692506379cc679091506044015f604051808303815f87803b15801561045f575f80fd5b505af1158015610471573d5f803e3d5ffd5b5050506001600160a01b0388165f908152600360205260409081902090516001925061049e908990610ba8565b908152604051908190036020018120805492151560ff19909316929092179091556001600160a01b038816907f8230fa33777644449d7c78c8146858e53756d703c0b80e2d9cbb4d3820dc20e7906104f99089908590610bda565b60405180910390a25061052b60017f9b779b17422d0df92223018b32b4d1fa46e071723d6817e2486d003becc55f0055565b505050505050565b61053b610758565b5f811161058a5760405162461bcd60e51b815260206004820152601c60248201527f5072696365206d7573742062652067726561746572207468616e2030000000006044820152606401610250565b8060028360405161059b9190610ba8565b9081526020016040518091039020819055507f01eca1d4f122dd67178d645879de0a8831dd30516393a2076f38bc68d47dbe3982826040516105de929190610bda565b60405180910390a15050565b60605f825167ffffffffffffffff8111156106075761060761085e565b604051908082528060200260200182016040528015610630578160200160208202803683370190505b5090505f5b83518110156106c0576001600160a01b0385165f908152600360205260409020845185908390811061066957610669610c14565b602002602001015160405161067e9190610ba8565b90815260405190819003602001902054825160ff909116908390839081106106a8576106a8610c14565b91151560209283029190910190910152600101610635565b509392505050565b6106d0610758565b6106d95f6107b2565b565b6001600160a01b0382165f908152600360205260408082209051610700908490610ba8565b9081526040519081900360200190205460ff16905092915050565b610723610758565b6001600160a01b03811661074c57604051631e4fbdf760e01b81525f6004820152602401610250565b610755816107b2565b50565b5f546001600160a01b031633146106d95760405163118cdaa760e01b8152336004820152602401610250565b61078c610801565b60027f9b779b17422d0df92223018b32b4d1fa46e071723d6817e2486d003becc55f0055565b5f80546001600160a01b038381166001600160a01b0319831681178455604051919092169283917f8be0079c531659141344cd1fd0a4f28419497f9722a3daafe3b4186f6b6457e09190a35050565b7f9b779b17422d0df92223018b32b4d1fa46e071723d6817e2486d003becc55f00546002036106d957604051633ee5aeb560e01b815260040160405180910390fd5b80356001600160a01b0381168114610859575f80fd5b919050565b634e487b7160e01b5f52604160045260245ffd5b604051601f8201601f1916810167ffffffffffffffff8111828210171561089b5761089b61085e565b604052919050565b5f82601f8301126108b2575f80fd5b813567ffffffffffffffff8111156108cc576108cc61085e565b6108df601f8201601f1916602001610872565b8181528460208386010111156108f3575f80fd5b816020850160208301375f918101602001919091529392505050565b5f805f805f8060c08789031215610924575f80fd5b61092d87610843565b9550602087013567ffffffffffffffff811115610948575f80fd5b61095489828a016108a3565b95505060408701359350606087013560ff81168114610971575f80fd5b9598949750929560808101359460a0909101359350915050565b5f806040838503121561099c575f80fd5b823567ffffffffffffffff8111156109b2575f80fd5b6109be858286016108a3565b95602094909401359450505050565b5f80604083850312156109de575f80fd5b6109e783610843565b915060208084013567ffffffffffffffff80821115610a04575f80fd5b818601915086601f830112610a17575f80fd5b813581811115610a2957610a2961085e565b8060051b610a38858201610872565b918252838101850191858101908a841115610a51575f80fd5b86860192505b83831015610a8b57823585811115610a6d575f80fd5b610a7b8c89838a01016108a3565b8352509186019190860190610a57565b809750505050505050509250929050565b602080825282518282018190525f9190848201906040850190845b81811015610ad5578351151583529284019291840191600101610ab7565b50909695505050505050565b5f8060408385031215610af2575f80fd5b610afb83610843565b9150602083013567ffffffffffffffff811115610b16575f80fd5b610b22858286016108a3565b9150509250929050565b5f60208284031215610b3c575f80fd5b813567ffffffffffffffff811115610b52575f80fd5b610b5e848285016108a3565b949350505050565b5f60208284031215610b76575f80fd5b610b7f82610843565b9392505050565b5f5b83811015610ba0578181015183820152602001610b88565b50505f910152565b5f8251610bb9818460208701610b86565b9190910192915050565b5f60208284031215610bd3575f80fd5b5051919050565b604081525f8351806040840152610bf8816060850160208801610b86565b602083019390935250601f91909101601f191601606001919050565b634e487b7160e01b5f52603260045260245ffdfea264697066735822122065c90d7f9498fe75de9637c7438d18025ed0c1b7b34d99c2751b07f9466c844b64736f6c63430008180033",
  "linkReferences": {},
  "deployedLinkReferences": {}
}